{
  "contractName": "Locker",
  "abi": [
    {
      "inputs": [
        {
          "internalType": "string",
          "name": "_name",
          "type": "string"
        },
        {
          "internalType": "address",
          "name": "_owner",
          "type": "address"
        },
        {
          "internalType": "uint256",
          "name": "_lockingPeriod",
          "type": "uint256"
        },
        {
          "internalType": "address",
          "name": "_beneficiary",
          "type": "address"
        }
      ],
      "stateMutability": "nonpayable",
      "type": "constructor"
    },
    {
      "anonymous": false,
      "inputs": [
        {
          "indexed": false,
          "internalType": "uint256",
          "name": "amount",
          "type": "uint256"
        }
      ],
      "name": "Received",
      "type": "event"
    },
    {
      "anonymous": false,
      "inputs": [
        {
          "indexed": false,
          "internalType": "address",
          "name": "by",
          "type": "address"
        },
        {
          "indexed": false,
          "internalType": "address",
          "name": "to",
          "type": "address"
        },
        {
          "indexed": false,
          "internalType": "uint256",
          "name": "amount",
          "type": "uint256"
        }
      ],
      "name": "Withdrew",
      "type": "event"
    },
    {
      "anonymous": false,
      "inputs": [
        {
          "indexed": false,
          "internalType": "address",
          "name": "token",
          "type": "address"
        },
        {
          "indexed": false,
          "internalType": "address",
          "name": "by",
          "type": "address"
        },
        {
          "indexed": false,
          "internalType": "address",
          "name": "to",
          "type": "address"
        },
        {
          "indexed": false,
          "internalType": "uint256",
          "name": "amount",
          "type": "uint256"
        }
      ],
      "name": "WithdrewERC20",
      "type": "event"
    },
    {
      "inputs": [],
      "name": "beneficiary",
      "outputs": [
        {
          "internalType": "address",
          "name": "",
          "type": "address"
        }
      ],
      "stateMutability": "view",
      "type": "function"
    },
    {
      "inputs": [],
      "name": "lastOwnerActive",
      "outputs": [
        {
          "internalType": "uint256",
          "name": "",
          "type": "uint256"
        }
      ],
      "stateMutability": "view",
      "type": "function"
    },
    {
      "inputs": [],
      "name": "lockingPeriod",
      "outputs": [
        {
          "internalType": "uint256",
          "name": "",
          "type": "uint256"
        }
      ],
      "stateMutability": "view",
      "type": "function"
    },
    {
      "inputs": [],
      "name": "name",
      "outputs": [
        {
          "internalType": "string",
          "name": "",
          "type": "string"
        }
      ],
      "stateMutability": "view",
      "type": "function"
    },
    {
      "inputs": [],
      "name": "owner",
      "outputs": [
        {
          "internalType": "address",
          "name": "",
          "type": "address"
        }
      ],
      "stateMutability": "view",
      "type": "function"
    },
    {
      "stateMutability": "payable",
      "type": "receive"
    },
    {
      "inputs": [
        {
          "internalType": "address",
          "name": "_tokenAddress",
          "type": "address"
        },
        {
          "internalType": "address",
          "name": "_to",
          "type": "address"
        },
        {
          "internalType": "uint256",
          "name": "_amount",
          "type": "uint256"
        }
      ],
      "name": "withdrawERC20",
      "outputs": [],
      "stateMutability": "nonpayable",
      "type": "function"
    },
    {
      "inputs": [
        {
          "internalType": "address payable",
          "name": "_to",
          "type": "address"
        },
        {
          "internalType": "uint256",
          "name": "_amount",
          "type": "uint256"
        }
      ],
      "name": "withdraw",
      "outputs": [],
      "stateMutability": "nonpayable",
      "type": "function"
    },
    {
      "inputs": [],
      "name": "heartbeat",
      "outputs": [],
      "stateMutability": "nonpayable",
      "type": "function"
    }
  ],
  "bytecode": "0x60806040523480156200001157600080fd5b5060405162001454380380620014548339818101604052810190620000379190620003d7565b83600090805190602001906200004f929190620000ea565b5082600160006101000a81548173ffffffffffffffffffffffffffffffffffffffff021916908373ffffffffffffffffffffffffffffffffffffffff1602179055508160038190555080600460006101000a81548173ffffffffffffffffffffffffffffffffffffffff021916908373ffffffffffffffffffffffffffffffffffffffff1602179055504260028190555050505050620004cd565b828054620000f89062000497565b90600052602060002090601f0160209004810192826200011c576000855562000168565b82601f106200013757805160ff191683800117855562000168565b8280016001018555821562000168579182015b82811115620001675782518255916020019190600101906200014a565b5b5090506200017791906200017b565b5090565b5b80821115620001965760008160009055506001016200017c565b5090565b6000604051905090565b600080fd5b600080fd5b600080fd5b600080fd5b6000601f19601f8301169050919050565b7f4e487b7100000000000000000000000000000000000000000000000000000000600052604160045260246000fd5b6200020382620001b8565b810181811067ffffffffffffffff82111715620002255762000224620001c9565b5b80604052505050565b60006200023a6200019a565b9050620002488282620001f8565b919050565b600067ffffffffffffffff8211156200026b576200026a620001c9565b5b6200027682620001b8565b9050602081019050919050565b60005b83811015620002a357808201518184015260208101905062000286565b83811115620002b3576000848401525b50505050565b6000620002d0620002ca846200024d565b6200022e565b905082815260208101848484011115620002ef57620002ee620001b3565b5b620002fc84828562000283565b509392505050565b600082601f8301126200031c576200031b620001ae565b5b81516200032e848260208601620002b9565b91505092915050565b600073ffffffffffffffffffffffffffffffffffffffff82169050919050565b6000620003648262000337565b9050919050565b620003768162000357565b81146200038257600080fd5b50565b60008151905062000396816200036b565b92915050565b6000819050919050565b620003b1816200039c565b8114620003bd57600080fd5b50565b600081519050620003d181620003a6565b92915050565b60008060008060808587031215620003f457620003f3620001a4565b5b600085015167ffffffffffffffff811115620004155762000414620001a9565b5b620004238782880162000304565b9450506020620004368782880162000385565b93505060406200044987828801620003c0565b92505060606200045c8782880162000385565b91505092959194509250565b7f4e487b7100000000000000000000000000000000000000000000000000000000600052602260045260246000fd5b60006002820490506001821680620004b057607f821691505b60208210811415620004c757620004c662000468565b5b50919050565b610f7780620004dd6000396000f3fe60806040526004361061007f5760003560e01c8063550066d51161004e578063550066d5146101e85780638da5cb5b14610213578063ad6c150b1461023e578063f3fef3a3146102695761014d565b806306fdde031461015257806338af3eed1461017d5780633defb962146101a857806344004cc1146101bf5761014d565b3661014d57600160009054906101000a900473ffffffffffffffffffffffffffffffffffffffff1673ffffffffffffffffffffffffffffffffffffffff163373ffffffffffffffffffffffffffffffffffffffff1614610114576040517f08c379a000000000000000000000000000000000000000000000000000000000815260040161010b906108e4565b60405180910390fd5b7fa8142743f8f70a4c26f3691cf4ed59718381fb2f18070ec52be1f1022d85555734604051610143919061091d565b60405180910390a1005b600080fd5b34801561015e57600080fd5b50610167610292565b60405161017491906109c0565b60405180910390f35b34801561018957600080fd5b50610192610320565b60405161019f9190610a23565b60405180910390f35b3480156101b457600080fd5b506101bd610346565b005b3480156101cb57600080fd5b506101e660048036038101906101e19190610a9b565b6103df565b005b3480156101f457600080fd5b506101fd610689565b60405161020a919061091d565b60405180910390f35b34801561021f57600080fd5b5061022861068f565b6040516102359190610a23565b60405180910390f35b34801561024a57600080fd5b506102536106b5565b604051610260919061091d565b60405180910390f35b34801561027557600080fd5b50610290600480360381019061028b9190610b2c565b6106bb565b005b6000805461029f90610b9b565b80601f01602080910402602001604051908101604052809291908181526020018280546102cb90610b9b565b80156103185780601f106102ed57610100808354040283529160200191610318565b820191906000526020600020905b8154815290600101906020018083116102fb57829003601f168201915b505050505081565b600460009054906101000a900473ffffffffffffffffffffffffffffffffffffffff1681565b600160009054906101000a900473ffffffffffffffffffffffffffffffffffffffff1673ffffffffffffffffffffffffffffffffffffffff163373ffffffffffffffffffffffffffffffffffffffff16146103d6576040517f08c379a00000000000000000000000000000000000000000000000000000000081526004016103cd90610c19565b60405180910390fd5b42600281905550565b600160009054906101000a900473ffffffffffffffffffffffffffffffffffffffff1673ffffffffffffffffffffffffffffffffffffffff163373ffffffffffffffffffffffffffffffffffffffff1614806104a35750600460009054906101000a900473ffffffffffffffffffffffffffffffffffffffff1673ffffffffffffffffffffffffffffffffffffffff163373ffffffffffffffffffffffffffffffffffffffff161480156104a2575060035460025461049e9190610c68565b4210155b5b6104e2576040517f08c379a00000000000000000000000000000000000000000000000000000000081526004016104d990610d0a565b60405180910390fd5b600083905060008173ffffffffffffffffffffffffffffffffffffffff166370a08231306040518263ffffffff1660e01b81526004016105229190610a23565b60206040518083038186803b15801561053a57600080fd5b505afa15801561054e573d6000803e3d6000fd5b505050506040513d601f19601f820116820180604052508101906105729190610d3f565b9050828110156105b7576040517f08c379a00000000000000000000000000000000000000000000000000000000081526004016105ae90610db8565b60405180910390fd5b8173ffffffffffffffffffffffffffffffffffffffff1663a9059cbb85856040518363ffffffff1660e01b81526004016105f2929190610dd8565b602060405180830381600087803b15801561060c57600080fd5b505af1158015610620573d6000803e3d6000fd5b505050506040513d601f19601f820116820180604052508101906106449190610e39565b507f6b00f1c7883f053ba83e907fd1965b22fffe3c4111383e725f04638a566cdbfa8533868660405161067a9493929190610e66565b60405180910390a15050505050565b60035481565b600160009054906101000a900473ffffffffffffffffffffffffffffffffffffffff1681565b60025481565b600160009054906101000a900473ffffffffffffffffffffffffffffffffffffffff1673ffffffffffffffffffffffffffffffffffffffff163373ffffffffffffffffffffffffffffffffffffffff16148061077f5750600460009054906101000a900473ffffffffffffffffffffffffffffffffffffffff1673ffffffffffffffffffffffffffffffffffffffff163373ffffffffffffffffffffffffffffffffffffffff1614801561077e575060035460025461077a9190610c68565b4210155b5b6107be576040517f08c379a00000000000000000000000000000000000000000000000000000000081526004016107b590610d0a565b60405180910390fd5b80471015610801576040517f08c379a00000000000000000000000000000000000000000000000000000000081526004016107f890610db8565b60405180910390fd5b8173ffffffffffffffffffffffffffffffffffffffff166108fc829081150290604051600060405180830381858888f19350505050158015610847573d6000803e3d6000fd5b507f0472be967f9a37138dfea1875af44784cafb79f92044ab33d7d6958eddd9ca6c33838360405161087b93929190610f0a565b60405180910390a15050565b600082825260208201905092915050565b7f4e6f74204f776e65720000000000000000000000000000000000000000000000600082015250565b60006108ce600983610887565b91506108d982610898565b602082019050919050565b600060208201905081810360008301526108fd816108c1565b9050919050565b6000819050919050565b61091781610904565b82525050565b6000602082019050610932600083018461090e565b92915050565b600081519050919050565b60005b83811015610961578082015181840152602081019050610946565b83811115610970576000848401525b50505050565b6000601f19601f8301169050919050565b600061099282610938565b61099c8185610887565b93506109ac818560208601610943565b6109b581610976565b840191505092915050565b600060208201905081810360008301526109da8184610987565b905092915050565b600073ffffffffffffffffffffffffffffffffffffffff82169050919050565b6000610a0d826109e2565b9050919050565b610a1d81610a02565b82525050565b6000602082019050610a386000830184610a14565b92915050565b600080fd5b610a4c81610a02565b8114610a5757600080fd5b50565b600081359050610a6981610a43565b92915050565b610a7881610904565b8114610a8357600080fd5b50565b600081359050610a9581610a6f565b92915050565b600080600060608486031215610ab457610ab3610a3e565b5b6000610ac286828701610a5a565b9350506020610ad386828701610a5a565b9250506040610ae486828701610a86565b9150509250925092565b6000610af9826109e2565b9050919050565b610b0981610aee565b8114610b1457600080fd5b50565b600081359050610b2681610b00565b92915050565b60008060408385031215610b4357610b42610a3e565b5b6000610b5185828601610b17565b9250506020610b6285828601610a86565b9150509250929050565b7f4e487b7100000000000000000000000000000000000000000000000000000000600052602260045260246000fd5b60006002820490506001821680610bb357607f821691505b60208210811415610bc757610bc6610b6c565b5b50919050565b7f4e6f74206f776e65720000000000000000000000000000000000000000000000600082015250565b6000610c03600983610887565b9150610c0e82610bcd565b602082019050919050565b60006020820190508181036000830152610c3281610bf6565b9050919050565b7f4e487b7100000000000000000000000000000000000000000000000000000000600052601160045260246000fd5b6000610c7382610904565b9150610c7e83610904565b9250827fffffffffffffffffffffffffffffffffffffffffffffffffffffffffffffffff03821115610cb357610cb2610c39565b5b828201905092915050565b7f4e6f7420416c6c6f776564210000000000000000000000000000000000000000600082015250565b6000610cf4600c83610887565b9150610cff82610cbe565b602082019050919050565b60006020820190508181036000830152610d2381610ce7565b9050919050565b600081519050610d3981610a6f565b92915050565b600060208284031215610d5557610d54610a3e565b5b6000610d6384828501610d2a565b91505092915050565b7f4e6f7420456e6f756768742042616c616e636520210000000000000000000000600082015250565b6000610da2601583610887565b9150610dad82610d6c565b602082019050919050565b60006020820190508181036000830152610dd181610d95565b9050919050565b6000604082019050610ded6000830185610a14565b610dfa602083018461090e565b9392505050565b60008115159050919050565b610e1681610e01565b8114610e2157600080fd5b50565b600081519050610e3381610e0d565b92915050565b600060208284031215610e4f57610e4e610a3e565b5b6000610e5d84828501610e24565b91505092915050565b6000608082019050610e7b6000830187610a14565b610e886020830186610a14565b610e956040830185610a14565b610ea2606083018461090e565b95945050505050565b6000819050919050565b6000610ed0610ecb610ec6846109e2565b610eab565b6109e2565b9050919050565b6000610ee282610eb5565b9050919050565b6000610ef482610ed7565b9050919050565b610f0481610ee9565b82525050565b6000606082019050610f1f6000830186610a14565b610f2c6020830185610efb565b610f39604083018461090e565b94935050505056fea264697066735822122007daa8fc3669ec42658cf57e9565b21c1c0359e85876828ba77c7944abc62c5e64736f6c63430008090033",
  "immutableReferences": {},
  "source": "// SPDX-License-Identifier: MIT\r\npragma solidity ^0.8.2;\r\nimport \"@openzeppelin/contracts/token/ERC20/extensions/IERC20Metadata.sol\";\r\n\r\ncontract Locker {\r\n    // Name assigned to Will contract\r\n    string public name;\r\n\r\n    // address of the owner\r\n    address public owner;\r\n\r\n    // time at which owner was last active\r\n    uint256 public lastOwnerActive;\r\n\r\n    // amount of time after inactivity of owner after which beneficiary can\r\n    // claim the assets\r\n    uint256 public lockingPeriod;\r\n\r\n    // address of the beneficiary\r\n    address public beneficiary;\r\n\r\n    /**\r\n     * Creates a Will with specified owner and locking time and beneficiary.\r\n     *\r\n     * @param _owner: Owner of the Will contract\r\n     * @param _lockingPeriod: Amount of time to be locked after inactivity of owner\r\n     *                        after which assets are claimable by beneficiary\r\n     * @param _beneficiary: address of beneficiary\r\n     **/\r\n    constructor(\r\n        string memory _name,\r\n        address _owner,\r\n        uint256 _lockingPeriod,\r\n        address _beneficiary\r\n    ) {\r\n        name = _name;\r\n        owner = _owner;\r\n        lockingPeriod = _lockingPeriod;\r\n        beneficiary = _beneficiary;\r\n\r\n        // set last owner active time to current time\r\n        lastOwnerActive = block.timestamp;\r\n    }\r\n\r\n    // Modifier to check that the caller is the owner of\r\n    // the contract.\r\n    modifier isOwner() {\r\n        require(msg.sender == owner, \"Not owner\");\r\n        _;\r\n    }\r\n\r\n    // Modifier to check that the caller is the beneficiary\r\n    modifier isBeneficiary() {\r\n        require(msg.sender == beneficiary, \"Not owner\");\r\n        _;\r\n    }\r\n\r\n    event WithdrewERC20(address token, address by, address to, uint256 amount);\r\n    event Withdrew(address by, address to, uint256 amount);\r\n    event Received(uint256 amount);\r\n\r\n    modifier isAllowed() {\r\n        require(\r\n            msg.sender == owner ||\r\n                (msg.sender == beneficiary &&\r\n                    block.timestamp >= (lastOwnerActive + lockingPeriod)),\r\n            \"Not Allowed!\"\r\n        );\r\n        _;\r\n    }\r\n\r\n    function withdrawERC20(\r\n        address _tokenAddress,\r\n        address _to,\r\n        uint256 _amount\r\n    ) external isAllowed {\r\n        IERC20Metadata token = IERC20Metadata(_tokenAddress);\r\n\r\n        // get balace of token\r\n        uint256 balance = token.balanceOf(address(this));\r\n\r\n        // check of balance is less than required Amount\r\n        require(balance >= _amount, \"Not Enought Balance !\");\r\n\r\n        // transfer required amount\r\n        token.transfer(_to, _amount);\r\n\r\n        // emit event after transfer\r\n        emit WithdrewERC20(_tokenAddress, msg.sender, _to, _amount);\r\n    }\r\n\r\n    function withdraw(address payable _to, uint256 _amount) external isAllowed {\r\n        // check of balance is less than required Amount\r\n        require(address(this).balance >= _amount, \"Not Enought Balance !\");\r\n\r\n        // send celo (ether) to given address\r\n        _to.transfer(_amount);\r\n\r\n        // emit event\r\n        emit Withdrew(msg.sender, _to, _amount);\r\n    }\r\n\r\n    function heartbeat() external isOwner {\r\n        // update last owner active timestamp\r\n        lastOwnerActive = block.timestamp;\r\n    }\r\n\r\n    receive() external payable {\r\n        // check if sender is owner of the contract\r\n        require(msg.sender == owner, \"Not Owner\");\r\n\r\n        emit Received(msg.value);\r\n    }\r\n}\r\n",
  "sourcePath": "C:\\Users\\Acer\\Desktop\\Celo\\react\\crypto-will\\contracts\\Locker.sol",
  "compiler": {
    "name": "solc",
    "version": "0.8.9+commit.e5eed63a.Emscripten.clang"
  },
  "schemaVersion": "3.4.3",
  "updatedAt": "2021-10-30T04:58:10.591Z",
  "devdoc": {
    "kind": "dev",
    "methods": {
      "constructor": {
        "params": {
          "_beneficiary": ": address of beneficiary*",
          "_lockingPeriod": ": Amount of time to be locked after inactivity of owner                        after which assets are claimable by beneficiary",
          "_owner": ": Owner of the Will contract"
        }
      }
    },
    "version": 1
  },
  "userdoc": {
    "kind": "user",
    "methods": {
      "constructor": {
        "notice": "Creates a Will with specified owner and locking time and beneficiary."
      }
    },
    "version": 1
  }
}