{
  "contractName": "LockerFactory",
  "abi": [
    {
      "anonymous": false,
      "inputs": [
        {
          "indexed": false,
          "internalType": "address",
          "name": "locker",
          "type": "address"
        },
        {
          "indexed": false,
          "internalType": "address",
          "name": "owner",
          "type": "address"
        }
      ],
      "name": "NewLocker",
      "type": "event"
    },
    {
      "inputs": [
        {
          "internalType": "address",
          "name": "",
          "type": "address"
        },
        {
          "internalType": "uint256",
          "name": "",
          "type": "uint256"
        }
      ],
      "name": "lockers",
      "outputs": [
        {
          "internalType": "address",
          "name": "",
          "type": "address"
        }
      ],
      "stateMutability": "view",
      "type": "function",
      "constant": true
    },
    {
      "inputs": [
        {
          "internalType": "address",
          "name": "_owner",
          "type": "address"
        }
      ],
      "name": "getLocker",
      "outputs": [
        {
          "internalType": "address[]",
          "name": "",
          "type": "address[]"
        }
      ],
      "stateMutability": "view",
      "type": "function",
      "constant": true
    },
    {
      "inputs": [
        {
          "internalType": "string",
          "name": "_name",
          "type": "string"
        },
        {
          "internalType": "address",
          "name": "_owner",
          "type": "address"
        },
        {
          "internalType": "uint256",
          "name": "_lockingTime",
          "type": "uint256"
        },
        {
          "internalType": "address",
          "name": "_beneficiary",
          "type": "address"
        }
      ],
      "name": "newLocker",
      "outputs": [],
      "stateMutability": "nonpayable",
      "type": "function"
    }
  ],
  "bytecode": "0x608060405234801561001057600080fd5b50611d15806100206000396000f3fe60806040523480156200001157600080fd5b5060043610620000465760003560e01c8063919884bf146200004b578063a6e1a54c1462000081578063c186dcb414620000b7575b600080fd5b6200006960048036038101906200006391906200039f565b620000d7565b6040516200007891906200049f565b60405180910390f35b6200009f6004803603810190620000999190620004fe565b620001a5565b604051620000ae919062000556565b60405180910390f35b620000d56004803603810190620000cf9190620006d5565b620001f4565b005b60606000808373ffffffffffffffffffffffffffffffffffffffff1673ffffffffffffffffffffffffffffffffffffffff1681526020019081526020016000208054806020026020016040519081016040528092919081815260200182805480156200019957602002820191906000526020600020905b8160009054906101000a900473ffffffffffffffffffffffffffffffffffffffff1673ffffffffffffffffffffffffffffffffffffffff16815260200190600101908083116200014e575b50505050509050919050565b60006020528160005260406000208181548110620001c257600080fd5b906000526020600020016000915091509054906101000a900473ffffffffffffffffffffffffffffffffffffffff1681565b600084848484604051620002089062000318565b6200021794939291906200080a565b604051809103906000f08015801562000234573d6000803e3d6000fd5b5090506000808573ffffffffffffffffffffffffffffffffffffffff1673ffffffffffffffffffffffffffffffffffffffff168152602001908152602001600020819080600181540180825580915050600190039060005260206000200160009091909190916101000a81548173ffffffffffffffffffffffffffffffffffffffff021916908373ffffffffffffffffffffffffffffffffffffffff1602179055507f69253c7023f628e3a302b63087a3bfc1dfdb256780182f81b9f0df9eff9542b08185604051620003099291906200085e565b60405180910390a15050505050565b611454806200088c83390190565b6000604051905090565b600080fd5b600080fd5b600073ffffffffffffffffffffffffffffffffffffffff82169050919050565b600062000367826200033a565b9050919050565b62000379816200035a565b81146200038557600080fd5b50565b60008135905062000399816200036e565b92915050565b600060208284031215620003b857620003b762000330565b5b6000620003c88482850162000388565b91505092915050565b600081519050919050565b600082825260208201905092915050565b6000819050602082019050919050565b62000408816200035a565b82525050565b60006200041c8383620003fd565b60208301905092915050565b6000602082019050919050565b60006200044282620003d1565b6200044e8185620003dc565b93506200045b83620003ed565b8060005b83811015620004925781516200047688826200040e565b9750620004838362000428565b9250506001810190506200045f565b5085935050505092915050565b60006020820190508181036000830152620004bb818462000435565b905092915050565b6000819050919050565b620004d881620004c3565b8114620004e457600080fd5b50565b600081359050620004f881620004cd565b92915050565b6000806040838503121562000518576200051762000330565b5b6000620005288582860162000388565b92505060206200053b85828601620004e7565b9150509250929050565b62000550816200035a565b82525050565b60006020820190506200056d600083018462000545565b92915050565b600080fd5b600080fd5b6000601f19601f8301169050919050565b7f4e487b7100000000000000000000000000000000000000000000000000000000600052604160045260246000fd5b620005c8826200057d565b810181811067ffffffffffffffff82111715620005ea57620005e96200058e565b5b80604052505050565b6000620005ff62000326565b90506200060d8282620005bd565b919050565b600067ffffffffffffffff82111562000630576200062f6200058e565b5b6200063b826200057d565b9050602081019050919050565b82818337600083830152505050565b60006200066e620006688462000612565b620005f3565b9050828152602081018484840111156200068d576200068c62000578565b5b6200069a84828562000648565b509392505050565b600082601f830112620006ba57620006b962000573565b5b8135620006cc84826020860162000657565b91505092915050565b60008060008060808587031215620006f257620006f162000330565b5b600085013567ffffffffffffffff81111562000713576200071262000335565b5b6200072187828801620006a2565b9450506020620007348782880162000388565b93505060406200074787828801620004e7565b92505060606200075a8782880162000388565b91505092959194509250565b600081519050919050565b600082825260208201905092915050565b60005b83811015620007a257808201518184015260208101905062000785565b83811115620007b2576000848401525b50505050565b6000620007c58262000766565b620007d1818562000771565b9350620007e381856020860162000782565b620007ee816200057d565b840191505092915050565b6200080481620004c3565b82525050565b60006080820190508181036000830152620008268187620007b8565b905062000837602083018662000545565b620008466040830185620007f9565b62000855606083018462000545565b95945050505050565b600060408201905062000875600083018562000545565b62000884602083018462000545565b939250505056fe60806040523480156200001157600080fd5b5060405162001454380380620014548339818101604052810190620000379190620003d7565b83600090805190602001906200004f929190620000ea565b5082600160006101000a81548173ffffffffffffffffffffffffffffffffffffffff021916908373ffffffffffffffffffffffffffffffffffffffff1602179055508160038190555080600460006101000a81548173ffffffffffffffffffffffffffffffffffffffff021916908373ffffffffffffffffffffffffffffffffffffffff1602179055504260028190555050505050620004cd565b828054620000f89062000497565b90600052602060002090601f0160209004810192826200011c576000855562000168565b82601f106200013757805160ff191683800117855562000168565b8280016001018555821562000168579182015b82811115620001675782518255916020019190600101906200014a565b5b5090506200017791906200017b565b5090565b5b80821115620001965760008160009055506001016200017c565b5090565b6000604051905090565b600080fd5b600080fd5b600080fd5b600080fd5b6000601f19601f8301169050919050565b7f4e487b7100000000000000000000000000000000000000000000000000000000600052604160045260246000fd5b6200020382620001b8565b810181811067ffffffffffffffff82111715620002255762000224620001c9565b5b80604052505050565b60006200023a6200019a565b9050620002488282620001f8565b919050565b600067ffffffffffffffff8211156200026b576200026a620001c9565b5b6200027682620001b8565b9050602081019050919050565b60005b83811015620002a357808201518184015260208101905062000286565b83811115620002b3576000848401525b50505050565b6000620002d0620002ca846200024d565b6200022e565b905082815260208101848484011115620002ef57620002ee620001b3565b5b620002fc84828562000283565b509392505050565b600082601f8301126200031c576200031b620001ae565b5b81516200032e848260208601620002b9565b91505092915050565b600073ffffffffffffffffffffffffffffffffffffffff82169050919050565b6000620003648262000337565b9050919050565b620003768162000357565b81146200038257600080fd5b50565b60008151905062000396816200036b565b92915050565b6000819050919050565b620003b1816200039c565b8114620003bd57600080fd5b50565b600081519050620003d181620003a6565b92915050565b60008060008060808587031215620003f457620003f3620001a4565b5b600085015167ffffffffffffffff811115620004155762000414620001a9565b5b620004238782880162000304565b9450506020620004368782880162000385565b93505060406200044987828801620003c0565b92505060606200045c8782880162000385565b91505092959194509250565b7f4e487b7100000000000000000000000000000000000000000000000000000000600052602260045260246000fd5b60006002820490506001821680620004b057607f821691505b60208210811415620004c757620004c662000468565b5b50919050565b610f7780620004dd6000396000f3fe60806040526004361061007f5760003560e01c8063550066d51161004e578063550066d5146101e85780638da5cb5b14610213578063ad6c150b1461023e578063f3fef3a3146102695761014d565b806306fdde031461015257806338af3eed1461017d5780633defb962146101a857806344004cc1146101bf5761014d565b3661014d57600160009054906101000a900473ffffffffffffffffffffffffffffffffffffffff1673ffffffffffffffffffffffffffffffffffffffff163373ffffffffffffffffffffffffffffffffffffffff1614610114576040517f08c379a000000000000000000000000000000000000000000000000000000000815260040161010b906108e4565b60405180910390fd5b7fa8142743f8f70a4c26f3691cf4ed59718381fb2f18070ec52be1f1022d85555734604051610143919061091d565b60405180910390a1005b600080fd5b34801561015e57600080fd5b50610167610292565b60405161017491906109c0565b60405180910390f35b34801561018957600080fd5b50610192610320565b60405161019f9190610a23565b60405180910390f35b3480156101b457600080fd5b506101bd610346565b005b3480156101cb57600080fd5b506101e660048036038101906101e19190610a9b565b6103df565b005b3480156101f457600080fd5b506101fd610689565b60405161020a919061091d565b60405180910390f35b34801561021f57600080fd5b5061022861068f565b6040516102359190610a23565b60405180910390f35b34801561024a57600080fd5b506102536106b5565b604051610260919061091d565b60405180910390f35b34801561027557600080fd5b50610290600480360381019061028b9190610b2c565b6106bb565b005b6000805461029f90610b9b565b80601f01602080910402602001604051908101604052809291908181526020018280546102cb90610b9b565b80156103185780601f106102ed57610100808354040283529160200191610318565b820191906000526020600020905b8154815290600101906020018083116102fb57829003601f168201915b505050505081565b600460009054906101000a900473ffffffffffffffffffffffffffffffffffffffff1681565b600160009054906101000a900473ffffffffffffffffffffffffffffffffffffffff1673ffffffffffffffffffffffffffffffffffffffff163373ffffffffffffffffffffffffffffffffffffffff16146103d6576040517f08c379a00000000000000000000000000000000000000000000000000000000081526004016103cd90610c19565b60405180910390fd5b42600281905550565b600160009054906101000a900473ffffffffffffffffffffffffffffffffffffffff1673ffffffffffffffffffffffffffffffffffffffff163373ffffffffffffffffffffffffffffffffffffffff1614806104a35750600460009054906101000a900473ffffffffffffffffffffffffffffffffffffffff1673ffffffffffffffffffffffffffffffffffffffff163373ffffffffffffffffffffffffffffffffffffffff161480156104a2575060035460025461049e9190610c68565b4210155b5b6104e2576040517f08c379a00000000000000000000000000000000000000000000000000000000081526004016104d990610d0a565b60405180910390fd5b600083905060008173ffffffffffffffffffffffffffffffffffffffff166370a08231306040518263ffffffff1660e01b81526004016105229190610a23565b60206040518083038186803b15801561053a57600080fd5b505afa15801561054e573d6000803e3d6000fd5b505050506040513d601f19601f820116820180604052508101906105729190610d3f565b9050828110156105b7576040517f08c379a00000000000000000000000000000000000000000000000000000000081526004016105ae90610db8565b60405180910390fd5b8173ffffffffffffffffffffffffffffffffffffffff1663a9059cbb85856040518363ffffffff1660e01b81526004016105f2929190610dd8565b602060405180830381600087803b15801561060c57600080fd5b505af1158015610620573d6000803e3d6000fd5b505050506040513d601f19601f820116820180604052508101906106449190610e39565b507f6b00f1c7883f053ba83e907fd1965b22fffe3c4111383e725f04638a566cdbfa8533868660405161067a9493929190610e66565b60405180910390a15050505050565b60035481565b600160009054906101000a900473ffffffffffffffffffffffffffffffffffffffff1681565b60025481565b600160009054906101000a900473ffffffffffffffffffffffffffffffffffffffff1673ffffffffffffffffffffffffffffffffffffffff163373ffffffffffffffffffffffffffffffffffffffff16148061077f5750600460009054906101000a900473ffffffffffffffffffffffffffffffffffffffff1673ffffffffffffffffffffffffffffffffffffffff163373ffffffffffffffffffffffffffffffffffffffff1614801561077e575060035460025461077a9190610c68565b4210155b5b6107be576040517f08c379a00000000000000000000000000000000000000000000000000000000081526004016107b590610d0a565b60405180910390fd5b80471015610801576040517f08c379a00000000000000000000000000000000000000000000000000000000081526004016107f890610db8565b60405180910390fd5b8173ffffffffffffffffffffffffffffffffffffffff166108fc829081150290604051600060405180830381858888f19350505050158015610847573d6000803e3d6000fd5b507f0472be967f9a37138dfea1875af44784cafb79f92044ab33d7d6958eddd9ca6c33838360405161087b93929190610f0a565b60405180910390a15050565b600082825260208201905092915050565b7f4e6f74204f776e65720000000000000000000000000000000000000000000000600082015250565b60006108ce600983610887565b91506108d982610898565b602082019050919050565b600060208201905081810360008301526108fd816108c1565b9050919050565b6000819050919050565b61091781610904565b82525050565b6000602082019050610932600083018461090e565b92915050565b600081519050919050565b60005b83811015610961578082015181840152602081019050610946565b83811115610970576000848401525b50505050565b6000601f19601f8301169050919050565b600061099282610938565b61099c8185610887565b93506109ac818560208601610943565b6109b581610976565b840191505092915050565b600060208201905081810360008301526109da8184610987565b905092915050565b600073ffffffffffffffffffffffffffffffffffffffff82169050919050565b6000610a0d826109e2565b9050919050565b610a1d81610a02565b82525050565b6000602082019050610a386000830184610a14565b92915050565b600080fd5b610a4c81610a02565b8114610a5757600080fd5b50565b600081359050610a6981610a43565b92915050565b610a7881610904565b8114610a8357600080fd5b50565b600081359050610a9581610a6f565b92915050565b600080600060608486031215610ab457610ab3610a3e565b5b6000610ac286828701610a5a565b9350506020610ad386828701610a5a565b9250506040610ae486828701610a86565b9150509250925092565b6000610af9826109e2565b9050919050565b610b0981610aee565b8114610b1457600080fd5b50565b600081359050610b2681610b00565b92915050565b60008060408385031215610b4357610b42610a3e565b5b6000610b5185828601610b17565b9250506020610b6285828601610a86565b9150509250929050565b7f4e487b7100000000000000000000000000000000000000000000000000000000600052602260045260246000fd5b60006002820490506001821680610bb357607f821691505b60208210811415610bc757610bc6610b6c565b5b50919050565b7f4e6f74206f776e65720000000000000000000000000000000000000000000000600082015250565b6000610c03600983610887565b9150610c0e82610bcd565b602082019050919050565b60006020820190508181036000830152610c3281610bf6565b9050919050565b7f4e487b7100000000000000000000000000000000000000000000000000000000600052601160045260246000fd5b6000610c7382610904565b9150610c7e83610904565b9250827fffffffffffffffffffffffffffffffffffffffffffffffffffffffffffffffff03821115610cb357610cb2610c39565b5b828201905092915050565b7f4e6f7420416c6c6f776564210000000000000000000000000000000000000000600082015250565b6000610cf4600c83610887565b9150610cff82610cbe565b602082019050919050565b60006020820190508181036000830152610d2381610ce7565b9050919050565b600081519050610d3981610a6f565b92915050565b600060208284031215610d5557610d54610a3e565b5b6000610d6384828501610d2a565b91505092915050565b7f4e6f7420456e6f756768742042616c616e636520210000000000000000000000600082015250565b6000610da2601583610887565b9150610dad82610d6c565b602082019050919050565b60006020820190508181036000830152610dd181610d95565b9050919050565b6000604082019050610ded6000830185610a14565b610dfa602083018461090e565b9392505050565b60008115159050919050565b610e1681610e01565b8114610e2157600080fd5b50565b600081519050610e3381610e0d565b92915050565b600060208284031215610e4f57610e4e610a3e565b5b6000610e5d84828501610e24565b91505092915050565b6000608082019050610e7b6000830187610a14565b610e886020830186610a14565b610e956040830185610a14565b610ea2606083018461090e565b95945050505050565b6000819050919050565b6000610ed0610ecb610ec6846109e2565b610eab565b6109e2565b9050919050565b6000610ee282610eb5565b9050919050565b6000610ef482610ed7565b9050919050565b610f0481610ee9565b82525050565b6000606082019050610f1f6000830186610a14565b610f2c6020830185610efb565b610f39604083018461090e565b94935050505056fea264697066735822122007daa8fc3669ec42658cf57e9565b21c1c0359e85876828ba77c7944abc62c5e64736f6c63430008090033a26469706673582212204969071994d253532c4aa5aae43a2f68667933e56417eb9b6cfaf7bab0bee8c464736f6c63430008090033",
  "immutableReferences": {},
  "source": "// SPDX-License-Identifier: MIT\r\npragma solidity ^0.8.2;\r\nimport \"./Locker.sol\";\r\n\r\ncontract LockerFactory {\r\n    mapping(address => address[]) public lockers;\r\n\r\n    // get all Lockers associated with given address\r\n    function getLocker(address _owner) public view returns (address[] memory) {\r\n        return lockers[_owner];\r\n    }\r\n\r\n    event NewLocker(address locker, address owner);\r\n\r\n    // create new locker\r\n    function newLocker(\r\n        string memory _name,\r\n        address _owner,\r\n        uint256 _lockingTime,\r\n        address _beneficiary\r\n    ) external {\r\n        // create new locker\r\n        Locker locker = new Locker(_name, _owner, _lockingTime, _beneficiary);\r\n\r\n        // Add mapping\r\n        lockers[_owner].push(address(locker));\r\n\r\n        // emit new locker event\r\n        emit NewLocker(address(locker), _owner);\r\n    }\r\n}\r\n",
  "sourcePath": "C:\\Users\\Acer\\Desktop\\Celo\\react\\crypto-will\\contracts\\LockerFactory.sol",
  "compiler": {
    "name": "solc",
    "version": "0.8.9+commit.e5eed63a.Emscripten.clang"
  },
  "schemaVersion": "3.4.3",
  "updatedAt": "2021-10-30T04:58:53.696Z",
  "networkType": "ethereum",
  "devdoc": {
    "kind": "dev",
    "methods": {},
    "version": 1
  },
  "userdoc": {
    "kind": "user",
    "methods": {},
    "version": 1
  }
}